{
  "contractName": "SkillVerification",
  "abi": [
    {
      "anonymous": false,
      "inputs": [
        {
          "indexed": true,
          "internalType": "address",
          "name": "user",
          "type": "address"
        },
        {
          "indexed": false,
          "internalType": "string",
          "name": "skillHash",
          "type": "string"
        },
        {
          "indexed": false,
          "internalType": "string",
          "name": "issuingOrganization",
          "type": "string"
        }
      ],
      "name": "SkillSubmitted",
      "type": "event"
    },
    {
      "anonymous": false,
      "inputs": [
        {
          "indexed": true,
          "internalType": "address",
          "name": "user",
          "type": "address"
        },
        {
          "indexed": false,
          "internalType": "string",
          "name": "skillHash",
          "type": "string"
        },
        {
          "indexed": false,
          "internalType": "address",
          "name": "verifier",
          "type": "address"
        }
      ],
      "name": "SkillVerified",
      "type": "event"
    },
    {
      "inputs": [
        {
          "internalType": "address",
          "name": "",
          "type": "address"
        },
        {
          "internalType": "uint256",
          "name": "",
          "type": "uint256"
        }
      ],
      "name": "userSkills",
      "outputs": [
        {
          "internalType": "string",
          "name": "skillHash",
          "type": "string"
        },
        {
          "internalType": "address",
          "name": "certifier",
          "type": "address"
        },
        {
          "internalType": "address",
          "name": "verifier",
          "type": "address"
        },
        {
          "internalType": "string",
          "name": "issuingOrganization",
          "type": "string"
        },
        {
          "internalType": "bool",
          "name": "isVerified",
          "type": "bool"
        }
      ],
      "stateMutability": "view",
      "type": "function",
      "constant": true
    },
    {
      "inputs": [
        {
          "internalType": "string",
          "name": "_skillHash",
          "type": "string"
        },
        {
          "internalType": "string",
          "name": "_issuingOrganization",
          "type": "string"
        }
      ],
      "name": "submitSkill",
      "outputs": [],
      "stateMutability": "nonpayable",
      "type": "function"
    },
    {
      "inputs": [
        {
          "internalType": "address",
          "name": "_user",
          "type": "address"
        },
        {
          "internalType": "uint256",
          "name": "_skillIndex",
          "type": "uint256"
        }
      ],
      "name": "verifySkill",
      "outputs": [],
      "stateMutability": "nonpayable",
      "type": "function"
    },
    {
      "inputs": [
        {
          "internalType": "address",
          "name": "_user",
          "type": "address"
        }
      ],
      "name": "getVerifiedSkills",
      "outputs": [
        {
          "components": [
            {
              "internalType": "string",
              "name": "skillHash",
              "type": "string"
            },
            {
              "internalType": "address",
              "name": "certifier",
              "type": "address"
            },
            {
              "internalType": "address",
              "name": "verifier",
              "type": "address"
            },
            {
              "internalType": "string",
              "name": "issuingOrganization",
              "type": "string"
            },
            {
              "internalType": "bool",
              "name": "isVerified",
              "type": "bool"
            }
          ],
          "internalType": "struct SkillVerification.Skill[]",
          "name": "",
          "type": "tuple[]"
        }
      ],
      "stateMutability": "view",
      "type": "function",
      "constant": true
    },
    {
      "inputs": [
        {
          "internalType": "address",
          "name": "_user",
          "type": "address"
        }
      ],
      "name": "getAllSkills",
      "outputs": [
        {
          "components": [
            {
              "internalType": "string",
              "name": "skillHash",
              "type": "string"
            },
            {
              "internalType": "address",
              "name": "certifier",
              "type": "address"
            },
            {
              "internalType": "address",
              "name": "verifier",
              "type": "address"
            },
            {
              "internalType": "string",
              "name": "issuingOrganization",
              "type": "string"
            },
            {
              "internalType": "bool",
              "name": "isVerified",
              "type": "bool"
            }
          ],
          "internalType": "struct SkillVerification.Skill[]",
          "name": "",
          "type": "tuple[]"
        }
      ],
      "stateMutability": "view",
      "type": "function",
      "constant": true
    }
  ],
  "bytecode": "0x608060405234801561001057600080fd5b506117f8806100206000396000f3fe608060405234801561001057600080fd5b50600436106100575760003560e01c806316f65ade1461005c5780639f921ece14610090578063a41a24c7146100c0578063b5a8eba1146100dc578063e4801937146100f8575b600080fd5b6100766004803603810190610071919061108f565b610128565b60405161008795949392919061140d565b60405180910390f35b6100aa60048036038101906100a59190611066565b6102d8565b6040516100b791906113eb565b60405180910390f35b6100da60048036038101906100d5919061108f565b610560565b005b6100f660048036038101906100f191906110cb565b610775565b005b610112600480360381019061010d9190611066565b610977565b60405161011f91906113eb565b60405180910390f35b6000602052816000526040600020818154811061014457600080fd5b9060005260206000209060050201600091509150508060000180546101689061167b565b80601f01602080910402602001604051908101604052809291908181526020018280546101949061167b565b80156101e15780601f106101b6576101008083540402835291602001916101e1565b820191906000526020600020905b8154815290600101906020018083116101c457829003601f168201915b5050505050908060010160009054906101000a900473ffffffffffffffffffffffffffffffffffffffff16908060020160009054906101000a900473ffffffffffffffffffffffffffffffffffffffff16908060030180546102429061167b565b80601f016020809104026020016040519081016040528092919081815260200182805461026e9061167b565b80156102bb5780601f10610290576101008083540402835291602001916102bb565b820191906000526020600020905b81548152906001019060200180831161029e57829003601f168201915b5050505050908060040160009054906101000a900460ff16905085565b60606000808373ffffffffffffffffffffffffffffffffffffffff1673ffffffffffffffffffffffffffffffffffffffff168152602001908152602001600020805480602002602001604051908101604052809291908181526020016000905b8282101561055557838290600052602060002090600502016040518060a001604052908160008201805461036b9061167b565b80601f01602080910402602001604051908101604052809291908181526020018280546103979061167b565b80156103e45780601f106103b9576101008083540402835291602001916103e4565b820191906000526020600020905b8154815290600101906020018083116103c757829003601f168201915b505050505081526020016001820160009054906101000a900473ffffffffffffffffffffffffffffffffffffffff1673ffffffffffffffffffffffffffffffffffffffff1673ffffffffffffffffffffffffffffffffffffffff1681526020016002820160009054906101000a900473ffffffffffffffffffffffffffffffffffffffff1673ffffffffffffffffffffffffffffffffffffffff1673ffffffffffffffffffffffffffffffffffffffff1681526020016003820180546104a99061167b565b80601f01602080910402602001604051908101604052809291908181526020018280546104d59061167b565b80156105225780601f106104f757610100808354040283529160200191610522565b820191906000526020600020905b81548152906001019060200180831161050557829003601f168201915b505050505081526020016004820160009054906101000a900460ff16151515158152505081526020019060010190610338565b505050509050919050565b6000808373ffffffffffffffffffffffffffffffffffffffff1673ffffffffffffffffffffffffffffffffffffffff1681526020019081526020016000208054905081106105e3576040517f08c379a00000000000000000000000000000000000000000000000000000000081526004016105da906114d5565b60405180910390fd5b60008060008473ffffffffffffffffffffffffffffffffffffffff1673ffffffffffffffffffffffffffffffffffffffff168152602001908152602001600020828154811061065b577f4e487b7100000000000000000000000000000000000000000000000000000000600052603260045260246000fd5b906000526020600020906005020190508060040160009054906101000a900460ff16156106bd576040517f08c379a00000000000000000000000000000000000000000000000000000000081526004016106b4906114f5565b60405180910390fd5b338160020160006101000a81548173ffffffffffffffffffffffffffffffffffffffff021916908373ffffffffffffffffffffffffffffffffffffffff16021790555060018160040160006101000a81548160ff0219169083151502179055508273ffffffffffffffffffffffffffffffffffffffff167f4e9a93dc85c66ebb64671f4ce09853f7db3910945803ca57263641de1e52813a82600001336040516107689291906114a5565b60405180910390a2505050565b60006040518060a001604052808481526020013373ffffffffffffffffffffffffffffffffffffffff168152602001600073ffffffffffffffffffffffffffffffffffffffff1681526020018381526020016000151581525090506000803373ffffffffffffffffffffffffffffffffffffffff1673ffffffffffffffffffffffffffffffffffffffff1681526020019081526020016000208190806001815401808255809150506001900390600052602060002090600502016000909190919091506000820151816000019080519060200190610854929190610ed4565b5060208201518160010160006101000a81548173ffffffffffffffffffffffffffffffffffffffff021916908373ffffffffffffffffffffffffffffffffffffffff16021790555060408201518160020160006101000a81548173ffffffffffffffffffffffffffffffffffffffff021916908373ffffffffffffffffffffffffffffffffffffffff16021790555060608201518160030190805190602001906108ff929190610ed4565b5060808201518160040160006101000a81548160ff02191690831515021790555050503373ffffffffffffffffffffffffffffffffffffffff167fd6f24647101766c0ca6a880aa53ccaf3fa8cdbfea63dcf615428630372d89ae4848460405161096a92919061146e565b60405180910390a2505050565b60606000805b6000808573ffffffffffffffffffffffffffffffffffffffff1673ffffffffffffffffffffffffffffffffffffffff16815260200190815260200160002080549050811015610a82576000808573ffffffffffffffffffffffffffffffffffffffff1673ffffffffffffffffffffffffffffffffffffffff1681526020019081526020016000208181548110610a3c577f4e487b7100000000000000000000000000000000000000000000000000000000600052603260045260246000fd5b906000526020600020906005020160040160009054906101000a900460ff1615610a6f578180610a6b906116ad565b9250505b8080610a7a906116ad565b91505061097d565b5060008167ffffffffffffffff811115610ac5577f4e487b7100000000000000000000000000000000000000000000000000000000600052604160045260246000fd5b604051908082528060200260200182016040528015610afe57816020015b610aeb610f5a565b815260200190600190039081610ae35790505b5090506000805b6000808773ffffffffffffffffffffffffffffffffffffffff1673ffffffffffffffffffffffffffffffffffffffff16815260200190815260200160002080549050811015610ec8576000808773ffffffffffffffffffffffffffffffffffffffff1673ffffffffffffffffffffffffffffffffffffffff1681526020019081526020016000208181548110610bc4577f4e487b7100000000000000000000000000000000000000000000000000000000600052603260045260246000fd5b906000526020600020906005020160040160009054906101000a900460ff1615610eb5576000808773ffffffffffffffffffffffffffffffffffffffff1673ffffffffffffffffffffffffffffffffffffffff1681526020019081526020016000208181548110610c5e577f4e487b7100000000000000000000000000000000000000000000000000000000600052603260045260246000fd5b90600052602060002090600502016040518060a0016040529081600082018054610c879061167b565b80601f0160208091040260200160405190810160405280929190818152602001828054610cb39061167b565b8015610d005780601f10610cd557610100808354040283529160200191610d00565b820191906000526020600020905b815481529060010190602001808311610ce357829003601f168201915b505050505081526020016001820160009054906101000a900473ffffffffffffffffffffffffffffffffffffffff1673ffffffffffffffffffffffffffffffffffffffff1673ffffffffffffffffffffffffffffffffffffffff1681526020016002820160009054906101000a900473ffffffffffffffffffffffffffffffffffffffff1673ffffffffffffffffffffffffffffffffffffffff1673ffffffffffffffffffffffffffffffffffffffff168152602001600382018054610dc59061167b565b80601f0160208091040260200160405190810160405280929190818152602001828054610df19061167b565b8015610e3e5780601f10610e1357610100808354040283529160200191610e3e565b820191906000526020600020905b815481529060010190602001808311610e2157829003601f168201915b505050505081526020016004820160009054906101000a900460ff161515151581525050838381518110610e9b577f4e487b7100000000000000000000000000000000000000000000000000000000600052603260045260246000fd5b60200260200101819052508180610eb1906116ad565b9250505b8080610ec0906116ad565b915050610b05565b50819350505050919050565b828054610ee09061167b565b90600052602060002090601f016020900481019282610f025760008555610f49565b82601f10610f1b57805160ff1916838001178555610f49565b82800160010185558215610f49579182015b82811115610f48578251825591602001919060010190610f2d565b5b509050610f569190610fb7565b5090565b6040518060a0016040528060608152602001600073ffffffffffffffffffffffffffffffffffffffff168152602001600073ffffffffffffffffffffffffffffffffffffffff168152602001606081526020016000151581525090565b5b80821115610fd0576000816000905550600101610fb8565b5090565b6000610fe7610fe284611546565b611515565b905082815260208101848484011115610fff57600080fd5b61100a848285611639565b509392505050565b60008135905061102181611794565b92915050565b600082601f83011261103857600080fd5b8135611048848260208601610fd4565b91505092915050565b600081359050611060816117ab565b92915050565b60006020828403121561107857600080fd5b600061108684828501611012565b91505092915050565b600080604083850312156110a257600080fd5b60006110b085828601611012565b92505060206110c185828601611051565b9150509250929050565b600080604083850312156110de57600080fd5b600083013567ffffffffffffffff8111156110f857600080fd5b61110485828601611027565b925050602083013567ffffffffffffffff81111561112157600080fd5b61112d85828601611027565b9150509250929050565b6000611143838361136e565b905092915050565b611154816115f1565b82525050565b611163816115f1565b82525050565b60006111748261159b565b61117e81856115be565b93508360208202850161119085611576565b8060005b858110156111cc57848403895281516111ad8582611137565b94506111b8836115b1565b925060208a01995050600181019050611194565b50829750879550505050505092915050565b6111e781611603565b82525050565b6111f681611603565b82525050565b6000611207826115a6565b61121181856115cf565b9350611221818560208601611648565b61122a81611783565b840191505092915050565b6000611240826115a6565b61124a81856115e0565b935061125a818560208601611648565b61126381611783565b840191505092915050565b6000815461127b8161167b565b61128581866115e0565b945060018216600081146112a057600181146112b2576112e5565b60ff19831686526020860193506112e5565b6112bb85611586565b60005b838110156112dd578154818901526001820191506020810190506112be565b808801955050505b50505092915050565b60006112fb6013836115e0565b91507f496e76616c696420736b696c6c20696e646578000000000000000000000000006000830152602082019050919050565b600061133b6016836115e0565b91507f536b696c6c20616c7265616479207665726966696564000000000000000000006000830152602082019050919050565b600060a083016000830151848203600086015261138b82826111fc565b91505060208301516113a0602086018261114b565b5060408301516113b3604086018261114b565b50606083015184820360608601526113cb82826111fc565b91505060808301516113e060808601826111de565b508091505092915050565b600060208201905081810360008301526114058184611169565b905092915050565b600060a08201905081810360008301526114278188611235565b9050611436602083018761115a565b611443604083018661115a565b81810360608301526114558185611235565b905061146460808301846111ed565b9695505050505050565b600060408201905081810360008301526114888185611235565b9050818103602083015261149c8184611235565b90509392505050565b600060408201905081810360008301526114bf818561126e565b90506114ce602083018461115a565b9392505050565b600060208201905081810360008301526114ee816112ee565b9050919050565b6000602082019050818103600083015261150e8161132e565b9050919050565b6000604051905081810181811067ffffffffffffffff8211171561153c5761153b611754565b5b8060405250919050565b600067ffffffffffffffff82111561156157611560611754565b5b601f19601f8301169050602081019050919050565b6000819050602082019050919050565b60008190508160005260206000209050919050565b600081519050919050565b600081519050919050565b6000602082019050919050565b600082825260208201905092915050565b600082825260208201905092915050565b600082825260208201905092915050565b60006115fc8261160f565b9050919050565b60008115159050919050565b600073ffffffffffffffffffffffffffffffffffffffff82169050919050565b6000819050919050565b82818337600083830152505050565b60005b8381101561166657808201518184015260208101905061164b565b83811115611675576000848401525b50505050565b6000600282049050600182168061169357607f821691505b602082108114156116a7576116a6611725565b5b50919050565b60006116b88261162f565b91507fffffffffffffffffffffffffffffffffffffffffffffffffffffffffffffffff8214156116eb576116ea6116f6565b5b600182019050919050565b7f4e487b7100000000000000000000000000000000000000000000000000000000600052601160045260246000fd5b7f4e487b7100000000000000000000000000000000000000000000000000000000600052602260045260246000fd5b7f4e487b7100000000000000000000000000000000000000000000000000000000600052604160045260246000fd5b6000601f19601f8301169050919050565b61179d816115f1565b81146117a857600080fd5b50565b6117b48161162f565b81146117bf57600080fd5b5056fea2646970667358221220fc4f7d0233971aaaae7ce2f1a423dc38d6bfe591513be296ed71108ff995ace364736f6c63430008000033",
  "immutableReferences": {},
  "source": "// SPDX-License-Identifier: MIT\r\npragma solidity ^0.8.0;\r\n\r\ncontract SkillVerification {\r\n\r\n    // Structure to represent a skill\r\n    struct Skill {\r\n        string skillHash;        // IPFS hash of the skill document\r\n        address certifier;       // Address of the certifier (who submitted the skill)\r\n        address verifier;        // Address of the verifier (who verified the skill)\r\n        string issuingOrganization;  // Name of the organization issuing the certificate\r\n        bool isVerified;         // Whether the skill has been verified or not\r\n    }\r\n\r\n    // Mapping from user address to a list of skills\r\n    mapping(address => Skill[]) public userSkills;\r\n\r\n    // Event emitted when a new skill is submitted\r\n    event SkillSubmitted(address indexed user, string skillHash, string issuingOrganization);\r\n\r\n    // Event emitted when a skill is verified\r\n    event SkillVerified(address indexed user, string skillHash, address verifier);\r\n\r\n    // Function to submit a skill\r\n    function submitSkill(string memory _skillHash, string memory _issuingOrganization) public {\r\n        // Create the skill struct and add it to the user's skill list\r\n        Skill memory newSkill = Skill({\r\n            skillHash: _skillHash,\r\n            certifier: msg.sender,     // The sender of the transaction is the certifier\r\n            verifier: address(0),      // Initially, no verifier\r\n            issuingOrganization: _issuingOrganization,\r\n            isVerified: false          // Skill is not verified at the time of submission\r\n        });\r\n\r\n        // Add the skill to the users skill list\r\n        userSkills[msg.sender].push(newSkill);\r\n\r\n        // Emit an event for the submission of the skill\r\n        emit SkillSubmitted(msg.sender, _skillHash, _issuingOrganization);\r\n    }\r\n\r\n    // Function to verify a skill\r\n    function verifySkill(address _user, uint _skillIndex) public {\r\n        // Ensure the skill index is valid\r\n        require(_skillIndex < userSkills[_user].length, \"Invalid skill index\");\r\n\r\n        // Fetch the skill and mark it as verified\r\n        Skill storage skillToVerify = userSkills[_user][_skillIndex];\r\n        require(!skillToVerify.isVerified, \"Skill already verified\");\r\n\r\n        // Set the verifier and mark the skill as verified\r\n        skillToVerify.verifier = msg.sender;\r\n        skillToVerify.isVerified = true;\r\n\r\n        // Emit an event for the verification of the skill\r\n        emit SkillVerified(_user, skillToVerify.skillHash, msg.sender);\r\n    }\r\n\r\n    // Function to get all verified skills for a user\r\n    function getVerifiedSkills(address _user) public view returns (Skill[] memory) {\r\n        // Initialize a temporary array for storing verified skills\r\n        uint verifiedCount = 0;\r\n        for (uint i = 0; i < userSkills[_user].length; i++) {\r\n            if (userSkills[_user][i].isVerified) {\r\n                verifiedCount++;\r\n            }\r\n        }\r\n\r\n        // Create an array for verified skills\r\n        Skill[] memory verifiedSkills = new Skill[](verifiedCount);\r\n        uint index = 0;\r\n        for (uint i = 0; i < userSkills[_user].length; i++) {\r\n            if (userSkills[_user][i].isVerified) {\r\n                verifiedSkills[index] = userSkills[_user][i];\r\n                index++;\r\n            }\r\n        }\r\n\r\n        return verifiedSkills;\r\n    }\r\n\r\n    // Function to get all skills for a user (both verified and unverified)\r\n    function getAllSkills(address _user) public view returns (Skill[] memory) {\r\n        return userSkills[_user];\r\n    }\r\n}\r\n",
  "sourcePath": "C:\\Users\\HIYA\\OneDrive\\Desktop\\Hackathon\\Hackindia\\SkillVerification\\contracts\\SkillVerification.sol",
  "compiler": {
    "name": "solc",
    "version": "0.8.0+commit.c7dfd78e.Emscripten.clang"
  },
  "schemaVersion": "3.4.16",
  "updatedAt": "2024-10-03T16:51:57.384Z",
  "networkType": "ethereum",
  "devdoc": {
    "kind": "dev",
    "methods": {},
    "version": 1
  },
  "userdoc": {
    "kind": "user",
    "methods": {},
    "version": 1
  }
}