{
  "contractName": "SkillVerification",
  "abi": [
    {
      "anonymous": false,
      "inputs": [
        {
          "indexed": true,
          "internalType": "address",
          "name": "client",
          "type": "address"
        },
        {
          "indexed": false,
          "internalType": "uint256",
          "name": "milestoneId",
          "type": "uint256"
        }
      ],
      "name": "DisputeRaised",
      "type": "event"
    },
    {
      "anonymous": false,
      "inputs": [
        {
          "indexed": true,
          "internalType": "address",
          "name": "freelancer",
          "type": "address"
        },
        {
          "indexed": false,
          "internalType": "uint256",
          "name": "milestoneId",
          "type": "uint256"
        }
      ],
      "name": "DisputeResolved",
      "type": "event"
    },
    {
      "anonymous": false,
      "inputs": [
        {
          "indexed": true,
          "internalType": "address",
          "name": "freelancer",
          "type": "address"
        },
        {
          "indexed": false,
          "internalType": "uint256",
          "name": "milestoneId",
          "type": "uint256"
        }
      ],
      "name": "MilestoneCompleted",
      "type": "event"
    },
    {
      "anonymous": false,
      "inputs": [
        {
          "indexed": true,
          "internalType": "address",
          "name": "client",
          "type": "address"
        },
        {
          "indexed": false,
          "internalType": "uint256",
          "name": "milestoneId",
          "type": "uint256"
        },
        {
          "indexed": false,
          "internalType": "uint256",
          "name": "amount",
          "type": "uint256"
        },
        {
          "indexed": false,
          "internalType": "uint256",
          "name": "dueDate",
          "type": "uint256"
        }
      ],
      "name": "MilestoneCreated",
      "type": "event"
    },
    {
      "anonymous": false,
      "inputs": [
        {
          "indexed": true,
          "internalType": "address",
          "name": "freelancer",
          "type": "address"
        },
        {
          "indexed": false,
          "internalType": "uint256",
          "name": "milestoneId",
          "type": "uint256"
        },
        {
          "indexed": false,
          "internalType": "uint256",
          "name": "amount",
          "type": "uint256"
        }
      ],
      "name": "PaymentReleased",
      "type": "event"
    },
    {
      "anonymous": false,
      "inputs": [
        {
          "indexed": true,
          "internalType": "address",
          "name": "user",
          "type": "address"
        },
        {
          "indexed": false,
          "internalType": "string",
          "name": "skillName",
          "type": "string"
        },
        {
          "indexed": false,
          "internalType": "string",
          "name": "ipfsHash",
          "type": "string"
        }
      ],
      "name": "SkillAdded",
      "type": "event"
    },
    {
      "inputs": [
        {
          "internalType": "address",
          "name": "",
          "type": "address"
        }
      ],
      "name": "milestoneCount",
      "outputs": [
        {
          "internalType": "uint256",
          "name": "",
          "type": "uint256"
        }
      ],
      "stateMutability": "view",
      "type": "function"
    },
    {
      "inputs": [
        {
          "internalType": "address",
          "name": "",
          "type": "address"
        },
        {
          "internalType": "uint256",
          "name": "",
          "type": "uint256"
        }
      ],
      "name": "milestones",
      "outputs": [
        {
          "internalType": "uint256",
          "name": "amount",
          "type": "uint256"
        },
        {
          "internalType": "uint256",
          "name": "dueDate",
          "type": "uint256"
        },
        {
          "internalType": "bool",
          "name": "isCompleted",
          "type": "bool"
        },
        {
          "internalType": "bool",
          "name": "isDisputed",
          "type": "bool"
        }
      ],
      "stateMutability": "view",
      "type": "function"
    },
    {
      "inputs": [
        {
          "internalType": "address",
          "name": "",
          "type": "address"
        },
        {
          "internalType": "uint256",
          "name": "",
          "type": "uint256"
        }
      ],
      "name": "skills",
      "outputs": [
        {
          "internalType": "string",
          "name": "name",
          "type": "string"
        },
        {
          "internalType": "string",
          "name": "ipfsHash",
          "type": "string"
        }
      ],
      "stateMutability": "view",
      "type": "function"
    },
    {
      "inputs": [
        {
          "internalType": "address",
          "name": "user",
          "type": "address"
        },
        {
          "internalType": "string",
          "name": "skillName",
          "type": "string"
        },
        {
          "internalType": "string",
          "name": "ipfsHash",
          "type": "string"
        }
      ],
      "name": "addSkill",
      "outputs": [],
      "stateMutability": "nonpayable",
      "type": "function"
    },
    {
      "inputs": [
        {
          "internalType": "address",
          "name": "user",
          "type": "address"
        }
      ],
      "name": "getSkills",
      "outputs": [
        {
          "components": [
            {
              "internalType": "string",
              "name": "name",
              "type": "string"
            },
            {
              "internalType": "string",
              "name": "ipfsHash",
              "type": "string"
            }
          ],
          "internalType": "struct SkillVerification.Skill[]",
          "name": "",
          "type": "tuple[]"
        }
      ],
      "stateMutability": "view",
      "type": "function"
    },
    {
      "inputs": [
        {
          "internalType": "address",
          "name": "freelancer",
          "type": "address"
        },
        {
          "internalType": "uint256",
          "name": "amount",
          "type": "uint256"
        },
        {
          "internalType": "uint256",
          "name": "dueDate",
          "type": "uint256"
        }
      ],
      "name": "createMilestone",
      "outputs": [],
      "stateMutability": "payable",
      "type": "function"
    },
    {
      "inputs": [
        {
          "internalType": "address",
          "name": "client",
          "type": "address"
        },
        {
          "internalType": "uint256",
          "name": "milestoneId",
          "type": "uint256"
        }
      ],
      "name": "completeMilestone",
      "outputs": [],
      "stateMutability": "nonpayable",
      "type": "function"
    },
    {
      "inputs": [
        {
          "internalType": "address payable",
          "name": "freelancer",
          "type": "address"
        },
        {
          "internalType": "uint256",
          "name": "milestoneId",
          "type": "uint256"
        }
      ],
      "name": "releasePayment",
      "outputs": [],
      "stateMutability": "nonpayable",
      "type": "function"
    },
    {
      "inputs": [
        {
          "internalType": "uint256",
          "name": "milestoneId",
          "type": "uint256"
        }
      ],
      "name": "raiseDispute",
      "outputs": [],
      "stateMutability": "nonpayable",
      "type": "function"
    },
    {
      "inputs": [
        {
          "internalType": "address",
          "name": "client",
          "type": "address"
        },
        {
          "internalType": "uint256",
          "name": "milestoneId",
          "type": "uint256"
        },
        {
          "internalType": "address payable",
          "name": "freelancer",
          "type": "address"
        }
      ],
      "name": "resolveDispute",
      "outputs": [],
      "stateMutability": "nonpayable",
      "type": "function"
    }
  ],
  "bytecode": "0x608060405234801561001057600080fd5b5061195e806100206000396000f3fe6080604052600436106100915760003560e01c80639e8277f9116100595780639e8277f91461016a578063a5c1674e146101a8578063c7a892bf146101d1578063d8e0ceaf14610211578063e63a06d51461023a57610091565b806329b6b146146100965780633d1d62cb146100bf5780637d74450f146100db57806392546ec614610118578063966ecf3b14610141575b600080fd5b3480156100a257600080fd5b506100bd60048036038101906100b891906110c4565b610277565b005b6100d960048036038101906100d49190611113565b6103e8565b005b3480156100e757600080fd5b5061010260048036038101906100fd9190610fa4565b6105a8565b60405161010f91906115a7565b60405180910390f35b34801561012457600080fd5b5061013f600480360381019061013a9190611009565b6105c0565b005b34801561014d57600080fd5b5061016860048036038101906101639190610fcd565b6106cd565b005b34801561017657600080fd5b50610191600480360381019061018c9190611088565b610874565b60405161019f9291906114b0565b60405180910390f35b3480156101b457600080fd5b506101cf60048036038101906101ca9190611162565b6109c5565b005b3480156101dd57600080fd5b506101f860048036038101906101f39190611088565b610ada565b60405161020894939291906115eb565b60405180910390f35b34801561021d57600080fd5b5061023860048036038101906102339190611088565b610b31565b005b34801561024657600080fd5b50610261600480360381019061025c9190610fa4565b610c99565b60405161026e919061148e565b60405180910390f35b6000600160008573ffffffffffffffffffffffffffffffffffffffff1673ffffffffffffffffffffffffffffffffffffffff168152602001908152602001600020600084815260200190815260200160002090508060020160019054906101000a900460ff1661031c576040517f08c379a000000000000000000000000000000000000000000000000000000000815260040161031390611587565b60405180910390fd5b60008160020160016101000a81548160ff021916908315150217905550600081600001549050600082600001819055508273ffffffffffffffffffffffffffffffffffffffff166108fc829081150290604051600060405180830381858888f19350505050158015610392573d6000803e3d6000fd5b508273ffffffffffffffffffffffffffffffffffffffff167ff396531fad1d4dc2cd92386cdea800c92a507f8fe1bdb80313eb32a57481b1dc856040516103d991906115a7565b60405180910390a25050505050565b81341461042a576040517f08c379a000000000000000000000000000000000000000000000000000000000815260040161042190611507565b60405180910390fd5b6000600260003373ffffffffffffffffffffffffffffffffffffffff1673ffffffffffffffffffffffffffffffffffffffff168152602001908152602001600020600081548092919061047c906117fc565b919050559050604051806080016040528084815260200183815260200160001515815260200160001515815250600160003373ffffffffffffffffffffffffffffffffffffffff1673ffffffffffffffffffffffffffffffffffffffff1681526020019081526020016000206000838152602001908152602001600020600082015181600001556020820151816001015560408201518160020160006101000a81548160ff02191690831515021790555060608201518160020160016101000a81548160ff0219169083151502179055509050503373ffffffffffffffffffffffffffffffffffffffff167f5bd8136ec1a676f2e94615e1a2b222c3c927c45b4736aa1fac8b431f5cec06a482858560405161059a93929190611630565b60405180910390a250505050565b60026020528060005260406000206000915090505481565b6000808473ffffffffffffffffffffffffffffffffffffffff1673ffffffffffffffffffffffffffffffffffffffff16815260200190815260200160002060405180604001604052808481526020018381525090806001815401808255809150506001900390600052602060002090600202016000909190919091506000820151816000019080519060200190610658929190610e5a565b506020820151816001019080519060200190610675929190610e5a565b5050508273ffffffffffffffffffffffffffffffffffffffff167f9fe4cea04eaa70e43827b044a6ed1a710fae29d69f29b3a24079476c6b1b497483836040516106c09291906114b0565b60405180910390a2505050565b6000600160003373ffffffffffffffffffffffffffffffffffffffff1673ffffffffffffffffffffffffffffffffffffffff168152602001908152602001600020600083815260200190815260200160002090508060020160009054906101000a900460ff16610772576040517f08c379a000000000000000000000000000000000000000000000000000000000815260040161076990611567565b60405180910390fd5b8060020160019054906101000a900460ff16156107c4576040517f08c379a00000000000000000000000000000000000000000000000000000000081526004016107bb906114e7565b60405180910390fd5b600081600001549050600082600001819055508373ffffffffffffffffffffffffffffffffffffffff166108fc829081150290604051600060405180830381858888f1935050505015801561081d573d6000803e3d6000fd5b508373ffffffffffffffffffffffffffffffffffffffff167f813cc0c15f94daee12f016451fccee2c55956c79a35fb2fe2be5c5621d53fc2084836040516108669291906115c2565b60405180910390a250505050565b6000602052816000526040600020818154811061089057600080fd5b9060005260206000209060020201600091509150508060000180546108b4906117ca565b80601f01602080910402602001604051908101604052809291908181526020018280546108e0906117ca565b801561092d5780601f106109025761010080835404028352916020019161092d565b820191906000526020600020905b81548152906001019060200180831161091057829003601f168201915b505050505090806001018054610942906117ca565b80601f016020809104026020016040519081016040528092919081815260200182805461096e906117ca565b80156109bb5780601f10610990576101008083540402835291602001916109bb565b820191906000526020600020905b81548152906001019060200180831161099e57829003601f168201915b5050505050905082565b6000600160003373ffffffffffffffffffffffffffffffffffffffff1673ffffffffffffffffffffffffffffffffffffffff168152602001908152602001600020600083815260200190815260200160002090508060020160019054906101000a900460ff1615610a6b576040517f08c379a0000000000000000000000000000000000000000000000000000000008152600401610a6290611527565b60405180910390fd5b60018160020160016101000a81548160ff0219169083151502179055503373ffffffffffffffffffffffffffffffffffffffff167fbd189a57edd98c9c61d4dd3cf0d28749a2cdda08f9bc354f8864830e0452082483604051610ace91906115a7565b60405180910390a25050565b6001602052816000526040600020602052806000526040600020600091509150508060000154908060010154908060020160009054906101000a900460ff16908060020160019054906101000a900460ff16905084565b6000600160008473ffffffffffffffffffffffffffffffffffffffff1673ffffffffffffffffffffffffffffffffffffffff168152602001908152602001600020600083815260200190815260200160002090508060020160009054906101000a900460ff1615610bd7576040517f08c379a0000000000000000000000000000000000000000000000000000000008152600401610bce90611547565b60405180910390fd5b8060020160019054906101000a900460ff1615610c29576040517f08c379a0000000000000000000000000000000000000000000000000000000008152600401610c20906114e7565b60405180910390fd5b60018160020160006101000a81548160ff0219169083151502179055503373ffffffffffffffffffffffffffffffffffffffff167fcf2fa48ea32f82bfaeea61fff946572d9c3cf6f6d756cdbfe114273febd0787883604051610c8c91906115a7565b60405180910390a2505050565b60606000808373ffffffffffffffffffffffffffffffffffffffff1673ffffffffffffffffffffffffffffffffffffffff168152602001908152602001600020805480602002602001604051908101604052809291908181526020016000905b82821015610e4f5783829060005260206000209060020201604051806040016040529081600082018054610d2c906117ca565b80601f0160208091040260200160405190810160405280929190818152602001828054610d58906117ca565b8015610da55780601f10610d7a57610100808354040283529160200191610da5565b820191906000526020600020905b815481529060010190602001808311610d8857829003601f168201915b50505050508152602001600182018054610dbe906117ca565b80601f0160208091040260200160405190810160405280929190818152602001828054610dea906117ca565b8015610e375780601f10610e0c57610100808354040283529160200191610e37565b820191906000526020600020905b815481529060010190602001808311610e1a57829003601f168201915b50505050508152505081526020019060010190610cf9565b505050509050919050565b828054610e66906117ca565b90600052602060002090601f016020900481019282610e885760008555610ecf565b82601f10610ea157805160ff1916838001178555610ecf565b82800160010185558215610ecf579182015b82811115610ece578251825591602001919060010190610eb3565b5b509050610edc9190610ee0565b5090565b5b80821115610ef9576000816000905550600101610ee1565b5090565b6000610f10610f0b84611698565b611667565b905082815260208101848484011115610f2857600080fd5b610f33848285611788565b509392505050565b600081359050610f4a816118e3565b92915050565b600081359050610f5f816118fa565b92915050565b600082601f830112610f7657600080fd5b8135610f86848260208601610efd565b91505092915050565b600081359050610f9e81611911565b92915050565b600060208284031215610fb657600080fd5b6000610fc484828501610f3b565b91505092915050565b60008060408385031215610fe057600080fd5b6000610fee85828601610f50565b9250506020610fff85828601610f8f565b9150509250929050565b60008060006060848603121561101e57600080fd5b600061102c86828701610f3b565b935050602084013567ffffffffffffffff81111561104957600080fd5b61105586828701610f65565b925050604084013567ffffffffffffffff81111561107257600080fd5b61107e86828701610f65565b9150509250925092565b6000806040838503121561109b57600080fd5b60006110a985828601610f3b565b92505060206110ba85828601610f8f565b9150509250929050565b6000806000606084860312156110d957600080fd5b60006110e786828701610f3b565b93505060206110f886828701610f8f565b925050604061110986828701610f50565b9150509250925092565b60008060006060848603121561112857600080fd5b600061113686828701610f3b565b935050602061114786828701610f8f565b925050604061115886828701610f8f565b9150509250925092565b60006020828403121561117457600080fd5b600061118284828501610f8f565b91505092915050565b6000611197838361143b565b905092915050565b60006111aa826116d8565b6111b481856116fb565b9350836020820285016111c6856116c8565b8060005b8581101561120257848403895281516111e3858261118b565b94506111ee836116ee565b925060208a019950506001810190506111ca565b50829750879550505050505092915050565b61121d81611752565b82525050565b600061122e826116e3565b611238818561170c565b9350611248818560208601611797565b611251816118d2565b840191505092915050565b6000611267826116e3565b611271818561171d565b9350611281818560208601611797565b61128a816118d2565b840191505092915050565b60006112a260158361171d565b91507f4d696c6573746f6e6520697320646973707574656400000000000000000000006000830152602082019050919050565b60006112e260278361171d565b91507f416d6f756e742073656e74206d757374206d61746368206d696c6573746f6e6560008301527f20616d6f756e74000000000000000000000000000000000000000000000000006020830152604082019050919050565b6000611348601a8361171d565b91507f4d696c6573746f6e6520616c72656164792064697370757465640000000000006000830152602082019050919050565b6000611388601b8361171d565b91507f4d696c6573746f6e6520616c726561647920636f6d706c6574656400000000006000830152602082019050919050565b60006113c8601a8361171d565b91507f4d696c6573746f6e65206973206e6f7420636f6d706c657465640000000000006000830152602082019050919050565b6000611408601b8361171d565b91507f4d696c6573746f6e65206973206e6f7420696e206469737075746500000000006000830152602082019050919050565b600060408301600083015184820360008601526114588282611223565b915050602083015184820360208601526114728282611223565b9150508091505092915050565b6114888161177e565b82525050565b600060208201905081810360008301526114a8818461119f565b905092915050565b600060408201905081810360008301526114ca818561125c565b905081810360208301526114de818461125c565b90509392505050565b6000602082019050818103600083015261150081611295565b9050919050565b60006020820190508181036000830152611520816112d5565b9050919050565b600060208201905081810360008301526115408161133b565b9050919050565b600060208201905081810360008301526115608161137b565b9050919050565b60006020820190508181036000830152611580816113bb565b9050919050565b600060208201905081810360008301526115a0816113fb565b9050919050565b60006020820190506115bc600083018461147f565b92915050565b60006040820190506115d7600083018561147f565b6115e4602083018461147f565b9392505050565b6000608082019050611600600083018761147f565b61160d602083018661147f565b61161a6040830185611214565b6116276060830184611214565b95945050505050565b6000606082019050611645600083018661147f565b611652602083018561147f565b61165f604083018461147f565b949350505050565b6000604051905081810181811067ffffffffffffffff8211171561168e5761168d6118a3565b5b8060405250919050565b600067ffffffffffffffff8211156116b3576116b26118a3565b5b601f19601f8301169050602081019050919050565b6000819050602082019050919050565b600081519050919050565b600081519050919050565b6000602082019050919050565b600082825260208201905092915050565b600082825260208201905092915050565b600082825260208201905092915050565b60006117398261175e565b9050919050565b600061174b8261175e565b9050919050565b60008115159050919050565b600073ffffffffffffffffffffffffffffffffffffffff82169050919050565b6000819050919050565b82818337600083830152505050565b60005b838110156117b557808201518184015260208101905061179a565b838111156117c4576000848401525b50505050565b600060028204905060018216806117e257607f821691505b602082108114156117f6576117f5611874565b5b50919050565b60006118078261177e565b91507fffffffffffffffffffffffffffffffffffffffffffffffffffffffffffffffff82141561183a57611839611845565b5b600182019050919050565b7f4e487b7100000000000000000000000000000000000000000000000000000000600052601160045260246000fd5b7f4e487b7100000000000000000000000000000000000000000000000000000000600052602260045260246000fd5b7f4e487b7100000000000000000000000000000000000000000000000000000000600052604160045260246000fd5b6000601f19601f8301169050919050565b6118ec8161172e565b81146118f757600080fd5b50565b61190381611740565b811461190e57600080fd5b50565b61191a8161177e565b811461192557600080fd5b5056fea2646970667358221220446411ac2a024d8478a54dddab48f21cd74721a97c37ebcde2b60543d3fa691064736f6c63430008000033",
  "immutableReferences": {},
  "source": "// SPDX-License-Identifier: MIT\r\npragma solidity ^0.8.0;\r\n\r\ncontract SkillVerification {\r\n    struct Skill {\r\n        string name;\r\n        string ipfsHash;\r\n    }\r\n\r\n    struct Milestone {\r\n        uint256 amount;\r\n        uint256 dueDate;\r\n        bool isCompleted;\r\n        bool isDisputed;\r\n    }\r\n\r\n    mapping(address => Skill[]) public skills;\r\n    mapping(address => mapping(uint256 => Milestone)) public milestones;\r\n    mapping(address => uint256) public milestoneCount;\r\n\r\n    event SkillAdded(address indexed user, string skillName, string ipfsHash);\r\n    event MilestoneCreated(address indexed client, uint256 milestoneId, uint256 amount, uint256 dueDate);\r\n    event MilestoneCompleted(address indexed freelancer, uint256 milestoneId);\r\n    event PaymentReleased(address indexed freelancer, uint256 milestoneId, uint256 amount);\r\n    event DisputeRaised(address indexed client, uint256 milestoneId);\r\n    event DisputeResolved(address indexed freelancer, uint256 milestoneId);\r\n\r\n    // Skill verification functions\r\n    function addSkill(address user, string memory skillName, string memory ipfsHash) public {\r\n        skills[user].push(Skill(skillName, ipfsHash));\r\n        emit SkillAdded(user, skillName, ipfsHash);\r\n    }\r\n\r\n    function getSkills(address user) public view returns (Skill[] memory) {\r\n        return skills[user];\r\n    }\r\n\r\n    // Escrow functions for milestone payments\r\n    function createMilestone(address freelancer, uint256 amount, uint256 dueDate) public payable {\r\n        require(msg.value == amount, \"Amount sent must match milestone amount\");\r\n\r\n        uint256 milestoneId = milestoneCount[msg.sender]++;\r\n        milestones[msg.sender][milestoneId] = Milestone({\r\n            amount: amount,\r\n            dueDate: dueDate,\r\n            isCompleted: false,\r\n            isDisputed: false\r\n        });\r\n\r\n        emit MilestoneCreated(msg.sender, milestoneId, amount, dueDate);\r\n    }\r\n\r\n    function completeMilestone(address client, uint256 milestoneId) public {\r\n        Milestone storage milestone = milestones[client][milestoneId];\r\n        require(!milestone.isCompleted, \"Milestone already completed\");\r\n        require(!milestone.isDisputed, \"Milestone is disputed\");\r\n\r\n        milestone.isCompleted = true;\r\n        emit MilestoneCompleted(msg.sender, milestoneId);\r\n    }\r\n\r\n    function releasePayment(address payable freelancer, uint256 milestoneId) public {\r\n        Milestone storage milestone = milestones[msg.sender][milestoneId];\r\n        require(milestone.isCompleted, \"Milestone is not completed\");\r\n        require(!milestone.isDisputed, \"Milestone is disputed\");\r\n\r\n        uint256 amount = milestone.amount;\r\n        milestone.amount = 0; // Set to zero to avoid reentrancy issues\r\n        freelancer.transfer(amount);\r\n\r\n        emit PaymentReleased(freelancer, milestoneId, amount);\r\n    }\r\n\r\n    function raiseDispute(uint256 milestoneId) public {\r\n        Milestone storage milestone = milestones[msg.sender][milestoneId];\r\n        require(!milestone.isDisputed, \"Milestone already disputed\");\r\n\r\n        milestone.isDisputed = true;\r\n        emit DisputeRaised(msg.sender, milestoneId);\r\n    }\r\n\r\n    function resolveDispute(address client, uint256 milestoneId, address payable freelancer) public {\r\n        Milestone storage milestone = milestones[client][milestoneId];\r\n        require(milestone.isDisputed, \"Milestone is not in dispute\");\r\n\r\n        milestone.isDisputed = false;\r\n        uint256 amount = milestone.amount;\r\n        milestone.amount = 0; // Set to zero to avoid reentrancy issues\r\n        freelancer.transfer(amount);\r\n\r\n        emit DisputeResolved(freelancer, milestoneId);\r\n    }\r\n}\r\n",
  "sourcePath": "C:\\Users\\HIYA\\Desktop\\TrustGig\\SkillVerification\\contracts\\SkillVerification.sol",
  "compiler": {
    "name": "solc",
    "version": "0.8.0+commit.c7dfd78e.Emscripten.clang"
  },
  "schemaVersion": "3.4.16",
  "updatedAt": "2024-11-09T02:22:55.704Z",
  "devdoc": {
    "kind": "dev",
    "methods": {},
    "version": 1
  },
  "userdoc": {
    "kind": "user",
    "methods": {},
    "version": 1
  }
}